:10000000EDC0000007C1000005C1000003C10000F1
:1000100001C10000FFC00000FDC00000FBC00000E7
:10002000F9C00000F7C00000F5C0000073C6000072
:1000300018C70000EFC00000EDC00000EBC00000DA
:10004000E9C00000E7C00000E5C00000E3C0000018
:10005000E1C00000DFC00000DDC0000079C3000087
:10006000D9C00000D7C00000D5C00000D3C0000038
:10007000D1C000001201100102000008412301005C
:1000800001000102DC011201100100000008EB0375
:10009000482000000102000109023E00020100C0E8
:1000A00032090400000102020100052400011004CD
:1000B0002402060524060001070582030800FF0943
:1000C000040100020A0000000705040240000107C5
:1000D00005830240000109026500020100C03209E7
:1000E00004000000010100000924010001090001D1
:1000F000010904010002010300000724010001417D
:100100000006240201010006240202020009240361
:100110000103010201000924030204010101000995
:1001200005010240000000000525010101090582CA
:100130000240000000000525010103040309043208
:1001400003410072006400750069006E006F0020BA
:100150000028007700770077002E006100720064AD
:1001600000750069006E006F002E006300630029B7
:1001700000000024036B00750077006100740061CB
:1001800000790040006E0069006600740079002E5E
:100190000063006F006D00000018034100720064EE
:1001A00000750069006E006F00200055006E006F42
:1001B00000000026034D004900440049002F004D77
:1001C000004F0043004F00200066006F00720020C7
:1001D000004C0055004600410000000011241FBEE5
:1001E000CFEFD2E0DEBFCDBF11E0A0E0B1E0E4EDA3
:1001F000F5E102C005900D92A233B107D9F712E0E4
:10020000A2E3B1E001C01D92A038B107E1F71AD214
:100210000C94E80AF5CE9BB1809589238BB908959B
:100220009BB1982B9BB9089530913B01FC01208133
:100230002F702230F8F0DC01119641E05D91E32F40
:10024000F0E0E35CFE4F50833F5F3F71413029F4A3
:10025000253081F02F3059F40DC0423041F4223066
:1002600049F0263039F02C3029F02D3019F04F5F4D
:10027000443021F7653018F004966450D7CF30939E
:100280003B01089590916501992331F0873F09F072
:1002900052C0109265014FC0883F50F09FE090938C
:1002A000330180933401109235011092360141C020
:1002B00087FF08C0803F21F481E0809365013BC047
:1002C00010926601E0916601EE2399F4982F9295C1
:1002D0009F70292F30E0277030702F5F3F4F220F23
:1002E0002093660190935D0180935E0110926001FE
:1002F00022C0F0E0DF01A05EBE4F9C91E170F07083
:10030000E35AFE4F8283892F8F708093660197FF97
:1003100014C080915D0190915E01A0915F01B09148
:1003200060018093330190933401A0933501B09321
:10033000360181E0089580E0089580E00895EF920D
:10034000FF920F931F93DF93CF9300D000D0CDB7D0
:10035000DEB7789483E0F82E8E010F5F1F4F8091F7
:10036000C80087FF0CC0E09032018091CE008ADF88
:100370008E298093320180E24EDFF09267018091F6
:1003800032018823A1F087E191E063E371E00E94EC
:10039000700A87E191E00E94910A1092320107C031
:1003A000C80164E041DF80E136DFF092680187E157
:1003B00091E0B8010E94A60A882391F78091C800B5
:1003C00085FF11C080913C0190913B01981759F035
:1003D000E82FF0E0E35CFE4F90819093CE008F5FBA
:1003E0008F7180933C01A89B1FC0A89A80916701E0
:1003F000882359F080916701815080936701809133
:100400006701882311F480E20BDF80916801882363
:1004100059F0809168018150809368018091680152
:10042000882311F480E1FCDEBDD699CFEF92FF92D4
:100430000F931F93CF93DF938FB7F8942FEE31E094
:100440003093700220936F023093720220937102F6
:100450008FBF4FB7F8948AE691E09093EB018093B9
:10046000EA019093ED018093EC014FBF7894E9018C
:10047000082FF92E13E09FB7F894809173029FBF65
:10048000803811F181E091E0C9D797FD1DC0E0915E
:100490006F02F09170028083E0916F02F091700220
:1004A000CF0101969093700280936F0222E08F3605
:1004B000920711F4C183D2839FB7F894809173029D
:1004C0008F5F809373029FBF8FB7F894E090EE0127
:1004D0008FBFA89904C08E2D813608F447C0A89A12
:1004E0008091EE01882311F180E295DE109367017F
:1004F0001DC0E091EC01F091ED016191F093ED01EF
:10050000E093EC0121E0EA3EF20721F40093EC01D4
:10051000F092ED019FB7F8948091EE0181508093A5
:10052000EE019FBF81E091E012D7EA94EE2009F737
:1005300080916701882359F08091670181508093F1
:10054000670180916701882311F480E269DE809160
:100550006801882359F08091680181508093680177
:1005600080916801882311F480E15ADE9FB7F894E6
:10057000809173029FBF882319F1E0917102F0917D
:1005800072029191F0937202E093710282E0EF3671
:10059000F80721F4C0937102D09372022FB7F89438
:1005A000809173028150809373022FBF8091C800A5
:1005B00085FFFCCF9093CE0080E12DDE1093680183
:1005C00081E091E01CD7EED556CF84B7877F84BFFA
:1005D00088E10FB6F89480936000109260000FBE1F
:1005E00014B884E085B91A9902C010920001809174
:1005F0000001813039F48FE18093CC0088E1809351
:10060000C90010C087E690E09093CD008093CC00A5
:1006100086E08093CA001092C80088E18093C900E8
:10062000539A5A9A6CD38AB180638AB98BB180632A
:100630008BB984E085BD80910001882311F45F9A15
:10064000579A0895C2DF80910001813011F477DE5E
:1006500001C0ECDE80E090E0089508950895809157
:100660000001813019F487E191E004C781E091E055
:1006700035C680910001882319F481E091E0C4C55A
:1006800008950F931F93CF938C01DC015496EC9146
:100690005497E150E23028F4F0E0E05DFE4FC08175
:1006A00001C0C0E0F8018389823009F4C860D80134
:1006B00055968C915597873031F0883031F08630DF
:1006C00029F4C26003C0C46001C0C6601092C900B2
:1006D0001092C8001092CA00F8012785308941891C
:1006E00052892030F1EE3F07F0E04F07F0E05F075E
:1006F00071F0CA01B901969587957795679560580D
:100700007B47814E9F4F42D72150304002C020E1AD
:1007100030E03093CD002093CC00C093CA00F801A4
:1007200087859089A189B2898030F1EE9F07F0E03A
:10073000AF07F0E0BF0711F480E001C082E08093D2
:10074000C80088E98093C900CF911F910F91089547
:100750001F920F920FB60F9211242F938F939F9396
:10076000EF93FF9380910001882321F58091CE00C3
:100770009EB39430F9F4E091EA01F091EB018083AB
:10078000E091EA01F091EB01CF0101969093EB012A
:100790008093EA0121E08A3E920721F48AE691E003
:1007A000928381839FB7F8948091EE018F5F80934D
:1007B000EE019FBFFF91EF919F918F912F910F902D
:1007C0000FBE0F901F901895FC01858580FF02C019
:1007D0005F9808955F9A0895923079F09330B1F060
:1007E000913009F041C080910001813009F032C0A0
:1007F00022E130E0E6E8F0E03BC08091000181308A
:1008000071F525E630E0E6EDF0E032C0813049F0E8
:10081000813018F0823041F510C0EBE3F1E0249113
:1008200017C080910001813021F4E3E7F1E02491C9
:100830000FC0EFE3F1E024910BC080910001813003
:1008400021F4E3EBF1E0249103C0E9E9F1E0249124
:1008500030E00EC022E130E0E4E7F0E009C02EE332
:1008600030E0E8E9F0E004C020E030E0E0E0F0E073
:10087000DA011196FC93EE93C901089528E030E067
:1008800040E003C04F5F220F331F28173907D0F312
:10089000842F8295807F08958093E900EBEEF0E04D
:1008A000808181608083EDEEF0E010826093EC0047
:1008B00040838091EE00881F8827881F089510923A
:1008C000F40080E08093E9001092F0001092E800BC
:1008D0001092ED009091EB009E7F9093EB008F5F64
:1008E000853081F708958091780287FF11C003C099
:1008F0008EB38823B1F08091E80082FFF9CF809118
:10090000E8008B778093E80008958EB3882349F040
:100910008091E80080FFF9CF8091E8008E77809386
:10092000E800089584E69091EC0090FF05C0909156
:10093000E80090FF05C01BC09091E80092FD17C031
:100940009EB39923B1F09EB39530A9F09091EB003E
:1009500095FD13C09091E10092FFE5CF9091E100E9
:100960009B7F9093E100882351F08150DCCF80E0A1
:10097000089582E0089583E0089581E0089584E079
:100980000895AF92BF92DF92EF92FF920F931F9361
:10099000DF93CF930F92CDB7DEB7082F5B017A01BB
:1009A0009983C0DFD82E9981882331F5192F1CC077
:1009B0008091E80085FD10C08091E8008E778093DB
:1009C000E800E114F10421F0F7010995813081F08C
:1009D000A9DF882349F00FC0F80181918F0180932E
:1009E000F1000894A108B108A114B10409F704C0EA
:1009F00075E0D72E01C0D82E8D2D0F90CF91DF91AD
:100A00001F910F91FF90EF90DF90BF90AF900895EE
:100A1000AF92BF92DF92EF92FF920F931F93DF93FB
:100A2000CF930F92CDB7DEB7082F5B017A01998380
:100A300079DFD82E9981882331F5192F1CC0809138
:100A4000E80085FD10C08091E8008B778093E80076
:100A5000E114F10421F0F7010995813081F062DFA2
:100A6000882349F00FC08091F100F80181938F0134
:100A70000894A108B108A114B10409F704C015E055
:100A8000D12E01C0D82E8D2D0F90CF91DF911F91C7
:100A90000F91FF90EF90DF90BF90AF900895282FB7
:100AA000392FF90180917E0290917F028617970776
:100AB00018F4BC0190E032C061157105D9F780913E
:100AC000E8008E778093E800F5CF8091E80083FD01
:100AD00037C08091E80082FD2DC08EB38823A1F13C
:100AE0008EB3853079F18091E80080FF17C0809146
:100AF000F20006C091919093F100615070408F5FB9
:100B00006115710511F08830A8F391E0883009F083
:100B100090E08091E8008E778093E8006115710580
:100B2000A1F6992391F606C08EB3882369F08EB39F
:100B3000853061F08091E80082FFF6CF80E0089573
:100B400081E0089583E0089582E0089583E00895A8
:100B5000282F392FC90120917E0230917F0226175C
:100B6000370718F4B90130E034C061157105D9F7C1
:100B70002091E8002E772093E800F5CF2091E8003F
:100B800023FD39C02091E80022FD2FC02EB322237F
:100B9000B1F12EB3253089F12091E80020FF19C072
:100BA0002091F20008C0FC010196E491E093F1006D
:100BB000615070402F5F6115710511F0283098F376
:100BC00031E0283009F030E02091E8002E772093C2
:100BD000E8006115710591F6332381F606C08EB3E6
:100BE000882369F08EB3853061F08091E80082FF40
:100BF000F6CF80E0089581E0089583E0089582E0D3
:100C0000089583E008956115710519F51DC02091BF
:100C1000E80023FD2EC02EB3222379F12EB3253018
:100C200051F12091E80022FFF2CFE82FF92F07C001
:100C30008091F1008193CF016150704029F0CF0184
:100C40002091F2002223A1F72091E8002B77209336
:100C5000E80061157105D9F606C08EB3882369F0E6
:100C60008EB3853061F08091E80080FFF6CF80E0A0
:100C7000089581E0089583E0089582E0089583E077
:100C8000089542D044D01EBA109276021092750296
:100C90001092740284E089BD89B5826089BD09B46F
:100CA00000FEFDCF8091D800982F9F779093D800B9
:100CB00080688093D800809163008E7F809363006A
:100CC0008091D8008F7D8093D8008091E0008E7F46
:100CD0008093E0008091E1008E7F8093E10080911D
:100CE000E20081608093E2008091E100877F809341
:100CF000E1008091E20088608093E2000895C1DF06
:100D000081E08093770208951092E2000895109296
:100D1000E10008951F920F920FB60F9211242F93A6
:100D20003F934F935F936F937F938F939F93AF9373
:100D3000BF93EF93FF938091E10080FF1BC08091F0
:100D4000E20080FF17C08091E1008E7F8093E10078
:100D50008091E2008E7F8093E2008091E2008061CA
:100D60008093E2008091D80080628093D80019BC03
:100D70001EBA74DC8091E10084FF29C08091E200FA
:100D800084FF25C084E089BD89B5826089BD09B42E
:100D900000FEFDCF8091D8008F7D8093D800809198
:100DA000E1008F7E8093E1008091E2008F7E80934E
:100DB000E2008091E20081608093E20080917602FF
:100DC000882311F084E001C081E08EBB46DC809175
:100DD000E10083FF27C08091E20083FF23C0809160
:100DE000E100877F8093E10082E08EBB1092760263
:100DF0008091E1008E7F8093E1008091E2008E7F00
:100E00008093E2008091E20080618093E20057DDF0
:100E100080E060E042E040DD8091F00088608093F7
:100E2000F000BFD18091E10082FF0AC08091E20012
:100E300082FF06C08091E1008B7F8093E100B1D1F9
:100E4000FF91EF91BF91AF919F918F917F916F91A2
:100E50005F914F913F912F910F900FBE0F901F9078
:100E600018951F920F920FB60F921124EF92FF92D6
:100E70000F931F932F933F934F935F936F937F93A2
:100E80008F939F93AF93BF93EF93FF93DF93CF9392
:100E90000F92CDB7DEB789EEE82EF12CF7018081F5
:100EA0008770108200EF10E0F8019081977F9083A7
:100EB0007894898322D0F894F7011082F801908108
:100EC000986090838981F70180830F90CF91DF91A3
:100ED000FF91EF91BF91AF919F918F917F916F9112
:100EE0005F914F913F912F911F910F91FF90EF9044
:100EF0000F900FBE0F901F9018951F93DF93CF9305
:100F0000CDB7DEB7AC970FB6F894DEBF0FBECDBF3E
:100F1000E8E7F2E08091F100819322E0E038F20707
:100F2000C9F78091780220917902253009F484C0B4
:100F3000263040F42130A1F1213070F0233009F047
:100F400017C12EC0283009F4E9C0293009F4F8C0CF
:100F5000263009F00DC18EC0803821F0823809F0AA
:100F600007C108C08091740290917502992371F0B5
:100F700082600CC080917C0287708093E900909120
:100F8000EB0081E095FF80E01092E9009091E8008D
:100F9000977F9093E8008093F1001092F100C9C010
:100FA000882319F0823009F0E3C090E08F719070CF
:100FB000009729F08230910509F0DBC00BC08091C9
:100FC0007A02813009F0D5C0233009F080E08093A7
:100FD00075022CC080917A02882341F520917C0211
:100FE000277009F4C6C02093E9008091EB0080FFD0
:100FF000C0C080917902833021F48091EB0080623F
:1010000013C08091EB0080618093EB0081E090E061
:1010100002C0880F991F2A95E2F78093EA00109288
:10102000EA008091EB0088608093EB001092E90069
:101030008091E800877F80C0882309F099C01091D3
:101040007A028091E800877F8093E8004CDC04C03E
:101050008EB3882309F48DC08091E80080FFF8CF1B
:101060001F7711F083E001C082E08EBB10681093FF
:10107000E3007FC08058823008F07AC080917A0205
:1010800090917B0223E08C3D920789F583E08C836D
:101090008AE28B833FB7F894DE01159680E090E0FA
:1010A0002EE041E2E22FF0E040935700E49180FF10
:1010B00003C0E295EF702F5FEF705E2F505D5A33E3
:1010C00008F0595F5C9311961C9211971296019645
:1010D0008431910539F73FBF8091E800877F809385
:1010E000E800CE0103966AE270E0D9DC11C060919D
:1010F0007C02AE014F5F5F4F6FDBBC010097C9F10F
:101100008091E800877F8093E80089819A8120DDC3
:101110008091E8008B778093E8002BC0803841F500
:101120008091E800877F8093E80080917602809329
:10113000F1008091E8008E778093E800D4DB19C03D
:101140008823B1F490917A02923098F48091E8006B
:10115000877F8093E80090937602C5DB80917602CA
:10116000882311F084E001C083E08EBB78DA01C0EF
:1011700080DA8091E80083FF0AC08091EB008062F2
:101180008093EB008091E800877F8093E800AC9625
:101190000FB6F894DEBF0FBECDBFCF91DF911F9188
:1011A00008950895CF938EB3882361F0C091E9002C
:1011B000C7701092E9008091E80083FF01C09DDEB6
:1011C000C093E900CF9108950F931F93DF93CF93BE
:1011D00000D0CDB7DEB7182FC9014A8369834EDB33
:1011E00069816295660F660F607C4A81642B402F8F
:1011F0004260482B812F50DB0F900F90CF91DF91F1
:101200001F910F9108950895CF93DF93EC01809182
:10121000E80083FF60C0888190E020917C023091DB
:101220007D022817390709F056C080917902813272
:1012300061F0823220F4803209F04DC019C0823250
:1012400069F1833209F047C038C080917802813A51
:1012500009F041C08091E800877F8093E800CE01CB
:101260000F9667E070E01BDC8091E8008B7713C07D
:1012700080917802813279F58091E800877F8093B0
:10128000E800CE010F9667E070E0BDDCCE01F9D931
:101290008091E8008E778093E8001DC080917802ED
:1012A0008132C9F48091E800877F8093E8008091C3
:1012B0007A028D87CE0188DA0DC080917802813262
:1012C00051F48091E800877F8093E800CE0160911F
:1012D0007A0299DF08DBDF91CF9108950F93CF93C6
:1012E000DF93EC010D96FC0189E0DF011D928A95E8
:1012F000E9F72A813B8189819C81992311F004E0DF
:1013000001C000E062E041E05FDF8130D9F42E816E
:101310003F818D819885992311F004E001C000E0A0
:1013200062E040E051DF813069F42A853B858985A0
:101330009C85992311F004E001C000E063E041E0E6
:1013400043DF01C080E0DF91CF910F910895DF93DB
:10135000CF930F92CDB7DEB7FC018EB38430F1F49A
:10136000278530894189528921153105410551056B
:10137000A9F081818093E9008091E80085FD0AC091
:101380008091E8008E778093E8006983CBDA6981E9
:10139000882329F46093F10080E001C082E00F907F
:1013A000CF91DF910895FC018EB3843011F527852C
:1013B0003089418952892115310541055105C9F00E
:1013C00081818093E9008091F2008823A1F09091BF
:1013D000E8008091E8008E778093E80095FD0DC0CD
:1013E000A1DA882359F49091E8009E779093E80061
:1013F000089582E0089580E0089580E008952EB376
:10140000243059F4FC0127853089418952892115FE
:1014100031054105510509F0C6CF0895FC018EB391
:10142000843021F52785308941895289211531057C
:1014300041055105D9F085818093E9008091E8004C
:1014400082FF14C08091F200882321F02091F100E6
:1014500030E002C02FEF3FEF8091F200882341F48B
:101460008091E8008B778093E80002C02FEF3FEF78
:10147000C90108950F931F93CF93DF93EC01198156
:10148000112391F02A813B818C81882311F004E0A3
:1014900001C000E0C901F2D9402F482B4260812FE2
:1014A00061E8FAD98130A1F41D81112399F02E81D0
:1014B0003F818885882311F0C4E001C0C0E0C901E4
:1014C000DDD94C2F482B4260812F60E8E5D903C05D
:1014D00080E001C081E0DF91CF911F910F910895CD
:1014E000FC01CB012EB32430C1F421812093E9000B
:1014F0002091E80025FF13C064E070E040E050E078
:1015000040DA882369F49091E80095FD09C0909134
:10151000E8009E779093E800089582E0089580E0C7
:1015200008952EB3243071F4FC0181818093E90089
:101530008091F200882341F08091E8008E778093BB
:10154000E800F0C982E0089580E00895FC01CB0135
:101550002EB32430B9F425812093E9002091E800CE
:1015600025FF10C064E070E040E050E051DA809167
:10157000E80085FD09C08091E8008B778093E80042
:1015800081E0089580E0089581E00895A1E21A2E97
:10159000AA1BBB1BFD010DC0AA1FBB1FEE1FFF1F17
:1015A000A217B307E407F50720F0A21BB30BE40B67
:1015B000F50B661F771F881F991F1A9469F76095AE
:1015C0007095809590959B01AC01BD01CF01089568
:0415D000F894FFCFBD
:1015D4000100034000000440000002080000000075
:1015E4000000000000000001024000000140000073
:1015F400000003820584078609888A008C000F8E08
:02160400302094
:00000001FF
